:100000000C9462000C948A000C948A000C948A0070
:100010000C948A000C948A000C948A000C948A0038
:100020000C948A000C948A000C948A000C94990316
:100030000C948A000C948A000C948A000C948A0018
:100040000C94F7020C948A000C9467030C944103FF
:100050000C948A000C948A000C948A000C948A00F8
:100060000C948A000C948A000000000023002600F3
:10007000290000000000240027002A0000000000E2
:10008000250028002B0004040404040404040202D4
:100090000202020203030303030301020408102007
:1000A0004080010204081020010204081020000012
:1000B0000008000201000003040700000000000027
:1000C0000000B50411241FBECFEFD8E0DEBFCDBFC6
:1000D00011E0A0E0B1E0E2ECFFE002C005900D927B
:1000E000A831B107D9F721E0A8E1B1E001C01D9224
:1000F000A63FB207E1F710E0C2E6D0E004C02197C6
:10010000FE010E94D907C136D107C9F70E94F10448
:100110000C94DF070C940000DC01EC91EC30E0F46F
:1001200012962C9188E592E0821B910927FD939508
:1001300023E0880F991F2A95E1F704974FB7F894A9
:100140002E2F30E0F901EE0FFF1FE20FF31FE75DE6
:10015000FE4F928381834FBF089590E0FC01E255EA
:10016000FF4F2491FC01E656FF4F3491FC01EA5702
:10017000FF4FE491EE23C9F0222339F0233001F13F
:10018000A8F4213019F1223029F1F0E0EE0FFF1F21
:10019000E458FF4FA591B4918FB7F894EC91611199
:1001A00026C030953E233C938FBF08952730A9F099
:1001B0002830C9F0243049F7809180008F7D03C03A
:1001C000809180008F7780938000DFCF84B58F7718
:1001D00084BDDBCF84B58F7DFBCF8091B0008F775E
:1001E0008093B000D2CF8091B0008F7DF9CF3E2BAD
:1001F000DACFCF93DF9390E0FC01E656FF4F2491D6
:100200008A579F4FFC0184918823D1F090E0880F9A
:10021000991FFC01EE58FF4FA591B491FC01E458E1
:10022000FF4FC591D49161110EC09FB7F8948C9186
:10023000E22FE0958E238C932881E223E8839FBFF1
:10024000DF91CF9108958FB7F894EC91E22BEC9366
:100250008FBFF6CF3FB7F89480912501909126018A
:10026000A0912701B091280126B5A89B05C02F3F7A
:1002700019F00196A11DB11D3FBFBA2FA92F982FCC
:100280008827BC01CD01620F711D811D911D42E0C7
:10029000660F771F881F991F4A95D1F708958F928F
:1002A0009F92AF92BF92CF92DF92EF92FF924B015B
:1002B0005C010E942A016B017C010E942A016C19D9
:1002C0007D098E099F09683E734081059105A8F359
:1002D00021E0821A9108A108B10888EEC80E83E0D7
:1002E000D81EE11CF11C81149104A104B10429F76A
:1002F000FF90EF90DF90CF90BF90AF909F908F9046
:100300000895AF92BF92CF92DF92EF92FF920F9338
:100310001F93CF93DF936C017B018B01040F151F9B
:10032000EB015E01AE18BF08C017D10759F0699103
:10033000D601ED91FC910190F081E02DC601099567
:10034000892B79F7C501DF91CF911F910F91FF9014
:10035000EF90DF90CF90BF90AF900895FC01538D48
:10036000448D252F30E0842F90E0821B930B54178F
:1003700010F0CF96089501970895FC01918D828D1C
:10038000981761F0A28DAE0FBF2FB11D5D968C91B5
:10039000928D9F5F9F73928F90E008958FEF9FEFF4
:1003A0000895FC01918D828D981731F0828DE80FB0
:1003B000F11D858D90E008958FEF9FEF0895FC016A
:1003C000918D228D892F90E0805C9F4F821B910937
:1003D0008F73992708958DE491E00E94DF0121E059
:1003E000892B09F420E0822F089580E090E0892B8A
:1003F00029F00E94EB0181110C9400000895FC018A
:10040000A48DA80FB92FB11DA35ABF4F2C91848D75
:1004100090E001968F739927848FA689B7892C93D2
:10042000A089B1898C91837080648C93938D848D25
:10043000981306C00288F389E02D80818F7D808328
:100440000895EF92FF920F931F93CF93DF93EC01E8
:1004500081E0888F9B8D8C8D98131AC0E889F9896B
:10046000808185FF15C09FB7F894EE89FF8960836E
:10047000E889F98980818370806480839FBF81E0EF
:1004800090E0DF91CF911F910F91FF90EF90089531
:10049000F62E0B8D10E00F5F1F4F0F731127E02E0C
:1004A0008C8D8E110CC00FB607FCFACFE889F98944
:1004B000808185FFF5CFCE010E94FF01F1CFEB8D4A
:1004C000EC0FFD2FF11DE35AFF4FF0829FB7F89418
:1004D0000B8FEA89FB8980818062CFCFCF93DF9336
:1004E000EC01888D8823B9F0AA89BB89E889F9894C
:1004F0008C9185FD03C0808186FD0DC00FB607FC81
:10050000F7CF8C9185FFF2CF808185FFEDCFCE01B3
:100510000E94FF01E9CFDF91CF9108951F93CF9300
:10052000DF93EC01162F88818C3008F04EC061E01B
:10053000812F0E94F9008881282F30E0F901EE0F09
:10054000FF1FE20FF31FE75DFE4F1F736081607CAA
:10055000612B608319821A822CE0622F0E94CD07E2
:10056000829FB001112430E020E0AB01420F531F05
:10057000FA01EE0FFF1FE40FF51FE75DFE4F9081BC
:1005800096FD16C02F5F3F4F2C30310571F781115A
:100590000FC01092800082E080938100109285004D
:1005A00010928400B19A80916F00826080936F00F6
:1005B000E8818E2F90E0FC01EE0FFF1FE80FF91F7E
:1005C000E75DFE4F8081806480838881DF91CF91D9
:1005D0001F910895FC0101900020E9F73197AF01C8
:1005E000481B590BBC018DE491E00C9481011F92D2
:1005F0000F920FB60F9211242F933F938F939F93D7
:10060000AF93BF938091210190912201A09123018A
:10061000B09124013091200123E0230F2D3758F5AC
:100620000196A11DB11D209320018093210190937B
:100630002201A0932301B093240180912501909180
:100640002601A0912701B09128010196A11DB11D9D
:100650008093250190932601A0932701B093280150
:10066000BF91AF919F918F913F912F910F900FBEAE
:100670000F901F90189526E8230F0296A11DB11D1B
:10068000D2CF1F920F920FB60F9211242F933F9348
:100690004F935F936F937F938F939F93AF93BF938A
:1006A000EF93FF938DE491E00E94FF01FF91EF91A2
:1006B000BF91AF919F918F917F916F915F914F917A
:1006C0003F912F910F900FBE0F901F9018951F9282
:1006D0000F920FB60F9211242F938F939F93EF9346
:1006E000FF93E0915D01F0915E018081E0916301F3
:1006F000F091640182FD1BC09081809166018F5F43
:100700008F7320916701821741F0E0916601F0E05C
:10071000E35BFE4F958F80936601FF91EF919F9170
:100720008F912F910F900FBE0F901F901895808181
:10073000F4CF1F920F920FB60F9211242F933F9375
:100740004F935F936F937F938F939F93AF93BF93D9
:10075000CF93DF93EF93FF9380911801C09119011C
:10076000D0E087FF24C01092850010928400809111
:1007700018018F5F8093180180911801082E000CDA
:10078000990B8C179D0724F4809118018C30C4F1CB
:100790008091840090918500049680349C4908F4EF
:1007A0007AC08091840090918500049676C08091F3
:1007B0001801082E000C990B8C179D07C4F6E091C8
:1007C00018018E2FEE0F990BFC01EE0FFF1FE80FA3
:1007D000F91FE75DFE4F808186FFC9CFE0911801C8
:1007E0008E2FEE0F990BFC01EE0FFF1FE80FF91F84
:1007F000E75DFE4F808160E08F730E94AD00B7CF50
:100800002091840030918500E09118018E2FEE0F29
:10081000990BFC01EE0FFF1FE80FF91FE75DFE4F7C
:1008200081819281820F931F909389008093880029
:10083000E09118018E2FEE0F990BFC01EE0FFF1FB8
:10084000E80FF91FE75DFE4F808186FF11C0E09140
:1008500018018E2FEE0F990BFC01EE0FFF1FE80F12
:10086000F91FE75DFE4F808161E08F730E94AD004C
:10087000FF91EF91DF91CF91BF91AF919F918F91B8
:100880007F916F915F914F913F912F910F900FBE8C
:100890000F901F90189580E49CE9909389008093B5
:1008A00088008FEF80931801E3CFCF92DF92EF9211
:1008B000FF920F931F93E82FF92F05C001501109E4
:1008C0002109310961F1908196239417B9F305C08C
:1008D000015011092109310911F1908196239413D6
:1008E000F7CFC12CD12CE12CF12C0AC08FEFC81A04
:1008F000D80AE80AF80A0C151D052E053F0579F0FF
:1009000080818623841791F36C2D7D2D8E2D9F2D54
:100910001F910F91FF90EF90DF90CF90089560E0CE
:1009200070E080E090E01F910F91FF90EF90DF90DA
:10093000CF900895FC01909119019C3098F481E0CA
:10094000890F809319019083892F90E0FC01EE0FAD
:10095000FF1FE80FF91FE75DFE4F88EB9BE09283D6
:10096000818308958FEF80830895EDE4F1E0138291
:10097000128288EE93E0A0E0B0E084839583A683A2
:10098000B78384E091E09183808385EC90E0958744
:10099000848784EC90E09787868780EC90E0918B49
:1009A000808B81EC90E0938B828B82EC90E0958B36
:1009B000848B86EC90E0978B868B118E128E138E33
:1009C000148E83EF91E00E949A0480EF91E00E94E0
:1009D0009A048DEE91E00E949A048AEE91E00C94C4
:1009E0009A04CF93DF93CDB7DEB7A3970FB6F894F1
:1009F000DEBF0FBECDBF789484B5826084BD84B560
:100A0000816084BD85B5826085BD85B5816085BD09
:100A100080916E00816080936E00109281008091C1
:100A20008100826080938100809181008160809349
:100A30008100809180008160809380008091B1006E
:100A400084608093B1008091B00081608093B00099
:100A500080917A00846080937A0080917A0082602D
:100A600080937A0080917A00816080937A008091EF
:100A70007A00806880937A001092C10061E08BE078
:100A80000E94F90060E08CE00E94F900E0915D01B5
:100A9000F0915E0182E08083E0915901F0915A016A
:100AA0001082E0915B01F0915C018FEC80831092E9
:100AB0006501E0916101F091620186E08083E0913F
:100AC0005F01F0916001808180618083E0915F012E
:100AD000F0916001808188608083E0915F01F091F6
:100AE0006001808180688083E0915F01F091600106
:100AF00080818F7D80836AE070E083EF91E00E94C7
:100B00008E0269E070E080EF91E00E948E0268E062
:100B100070E08DEE91E00E948E0267E070E08AEE58
:100B200091E00E948E0243E2242E312C5AE0C52E21
:100B3000D12CE12CF12C60E08BE00E94AD0062E052
:100B400070E080E090E00E944F0161E08BE00E9445
:100B5000AD00C1010197F1F760E08BE00E94AD00AC
:100B6000E6EAF0E06491E2E9F0E08491E82FF0E059
:100B7000EE0FFF1FE859FF4F8591949100E412E4B6
:100B80002FE030E0462F0E9455042B013C01411418
:100B900051046104710439F0FFEF4F1A5F0A6F0AC4
:100BA0007F0A8FE0782240921A0150921B016092D6
:100BB0001C0170921D01411451046104710471F40F
:100BC00060E08CE00E94AD0061E070E080E090E0C9
:100BD0000E944F0160E08CE00E94F900C301B20165
:100BE00095958795779567950E94D40626E933E415
:100BF0004BE05DE30E94380720E030E040E05FE337
:100C00000E9438070E949C062B017BA36AA3809058
:100C10001E0190901F01092C000CAA08BB08B7FE0A
:100C200050C06DE28DE491E00E942102222733271B
:100C3000A901281939094A095B0919A28E010F5D1A
:100C40001F4FCA01B901A70196010E947A06605D93
:100C5000F80162938F01211531054105510589F78E
:100C60000115110519F0C8010E94EA0282E191E024
:100C70000E94EA0285E191E00E94EA0262E370E0EC
:100C800080E090E00E944F0150921F0140921E01AF
:100C90008AA19BA10F975CF58DEE91E00E948C00DC
:100CA00080EF91E00E948C00E0E0F0E0EF2B09F48F
:100CB00042CF0E94EB01882309F43DCF0E9400003F
:100CC0003ACFA501940119A28E010F5D1F4FCA01F1
:100CD000B901A70196010E947A06605DF80162934E
:100CE0008F01211531054105510589F7B9CF83EFF2
:100CF00091E0D4CFA1E21A2EAA1BBB1BFD010DC0AF
:100D0000AA1FBB1FEE1FFF1FA217B307E407F507BB
:100D100020F0A21BB30BE40BF50B661F771F881F97
:100D2000991F1A9469F760957095809590959B012D
:100D3000AC01BD01CF0108950E94A3066894B111D2
:100D40000C94320708950E94170788F09F5798F077
:100D5000B92F9927B751B0F0E1F0660F771F881FC0
:100D6000991F1AF0BA95C9F714C0B13091F00E94DA
:100D70003107B1E008950C943107672F782F882749
:100D8000B85F39F0B93FCCF3869577956795B39501
:100D9000D9F73EF490958095709561957F4F8F4F70
:100DA0009F4F0895E89409C097FB3EF49095809575
:100DB000709561957F4F8F4F9F4F9923A9F0F92F21
:100DC00096E9BB279395F695879577956795B7959F
:100DD000F111F8CFFAF4BB0F11F460FF1BC06F5F85
:100DE0007F4F8F4F9F4F16C0882311F096E911C097
:100DF000772321F09EE8872F762F05C0662371F0B8
:100E000096E8862F70E060E02AF09A95660F771FCB
:100E1000881FDAF7880F9695879597F9089557FDFB
:100E20009058440F551F59F05F3F71F04795880F58
:100E300097FB991F61F09F3F79F0879508951216EF
:100E400013061406551FF2CF4695F1DF08C016169B
:100E500017061806991FF1CF86957105610508944C
:100E60000895E894BB2766277727CB0197F9089563
:100E70000E944B070C94BC070E94AE0738F00E94FA
:100E8000B50720F0952311F00C94A5070C94AB073F
:100E900011240C9432070E940F0770F3959FC1F341
:100EA000950F50E0551F629FF001729FBB27F00D18
:100EB000B11D639FAA27F00DB11DAA1F649F66276D
:100EC000B00DA11D661F829F2227B00DA11D621FBC
:100ED000739FB00DA11D621F839FA00D611D221F76
:100EE000749F3327A00D611D231F849F600D211D5A
:100EF000822F762F6A2F11249F5750409AF0F1F0DD
:100F000088234AF0EE0FFF1FBB1F661F771F881F45
:100F100091505040A9F79E3F510580F00C94A507D1
:100F20000C9432075F3FE4F3983ED4F386957795AF
:100F30006795B795F795E7959F5FC1F7FE2B880FEB
:100F4000911D9695879597F9089597F99F6780E881
:100F500070E060E008959FEF80EC089500240A940B
:100F60001616170618060906089500240A94121684
:100F70001306140605060895092E0394000C11F4B7
:100F8000882352F0BB0F40F4BF2B11F460FF04C064
:100F90006F5F7F4F8F4F9F4F0895991B79E004C07B
:100FA000991F961708F0961B881F7A95C9F78095A8
:100FB0000895EE0FFF1F0590F491E02D0994F89429
:020FC000FFCF61
:100FC2000000000021028101AE016E02DF01BD01BD
:080FD200D101636D000D0A005E
:00000001FF
